{
  "_format": "hh-sol-artifact-1",
  "contractName": "Marketplace",
  "sourceName": "src/backend/contracts/Marketplace.sol",
  "abi": [
    {
      "inputs": [
        {
          "internalType": "uint256",
          "name": "_feePercent",
          "type": "uint256"
        }
      ],
      "stateMutability": "nonpayable",
      "type": "constructor"
    },
    {
      "anonymous": false,
      "inputs": [
        {
          "indexed": false,
          "internalType": "uint256",
          "name": "itemId",
          "type": "uint256"
        },
        {
          "indexed": true,
          "internalType": "address",
          "name": "nft",
          "type": "address"
        },
        {
          "indexed": false,
          "internalType": "uint256",
          "name": "price",
          "type": "uint256"
        },
        {
          "indexed": false,
          "internalType": "uint256",
          "name": "tokenId",
          "type": "uint256"
        },
        {
          "indexed": true,
          "internalType": "address",
          "name": "seller",
          "type": "address"
        }
      ],
      "name": "ItemCreated",
      "type": "event"
    },
    {
      "anonymous": false,
      "inputs": [
        {
          "indexed": false,
          "internalType": "uint256",
          "name": "itemId",
          "type": "uint256"
        },
        {
          "indexed": true,
          "internalType": "address",
          "name": "nft",
          "type": "address"
        },
        {
          "indexed": false,
          "internalType": "uint256",
          "name": "tokenId",
          "type": "uint256"
        },
        {
          "indexed": false,
          "internalType": "uint256",
          "name": "price",
          "type": "uint256"
        },
        {
          "indexed": true,
          "internalType": "address",
          "name": "seller",
          "type": "address"
        },
        {
          "indexed": true,
          "internalType": "address",
          "name": "buyer",
          "type": "address"
        }
      ],
      "name": "ItemTransfered",
      "type": "event"
    },
    {
      "inputs": [
        {
          "internalType": "contract IERC721",
          "name": "_nft",
          "type": "address"
        },
        {
          "internalType": "uint256",
          "name": "_tokenID",
          "type": "uint256"
        },
        {
          "internalType": "uint256",
          "name": "_price",
          "type": "uint256"
        }
      ],
      "name": "createItem",
      "outputs": [],
      "stateMutability": "nonpayable",
      "type": "function"
    },
    {
      "inputs": [],
      "name": "feeAccount",
      "outputs": [
        {
          "internalType": "address payable",
          "name": "",
          "type": "address"
        }
      ],
      "stateMutability": "view",
      "type": "function"
    },
    {
      "inputs": [],
      "name": "feePercent",
      "outputs": [
        {
          "internalType": "uint256",
          "name": "",
          "type": "uint256"
        }
      ],
      "stateMutability": "view",
      "type": "function"
    },
    {
      "inputs": [
        {
          "internalType": "uint256",
          "name": "_itemID",
          "type": "uint256"
        }
      ],
      "name": "getTotalPrice",
      "outputs": [
        {
          "internalType": "uint256",
          "name": "",
          "type": "uint256"
        }
      ],
      "stateMutability": "view",
      "type": "function"
    },
    {
      "inputs": [],
      "name": "itemCount",
      "outputs": [
        {
          "internalType": "uint256",
          "name": "",
          "type": "uint256"
        }
      ],
      "stateMutability": "view",
      "type": "function"
    },
    {
      "inputs": [
        {
          "internalType": "uint256",
          "name": "",
          "type": "uint256"
        }
      ],
      "name": "items",
      "outputs": [
        {
          "internalType": "uint256",
          "name": "itemId",
          "type": "uint256"
        },
        {
          "internalType": "contract IERC721",
          "name": "nft",
          "type": "address"
        },
        {
          "internalType": "uint256",
          "name": "price",
          "type": "uint256"
        },
        {
          "internalType": "uint256",
          "name": "tokenId",
          "type": "uint256"
        },
        {
          "internalType": "address payable",
          "name": "seller",
          "type": "address"
        },
        {
          "internalType": "bool",
          "name": "sold",
          "type": "bool"
        }
      ],
      "stateMutability": "view",
      "type": "function"
    },
    {
      "inputs": [
        {
          "internalType": "uint256",
          "name": "_itemID",
          "type": "uint256"
        }
      ],
      "name": "purchaseItem",
      "outputs": [],
      "stateMutability": "payable",
      "type": "function"
    }
  ],
  "bytecode": "0x60c060405234801561001057600080fd5b506040516112ba3803806112ba83398181016040528101906100329190610094565b60016000819055503373ffffffffffffffffffffffffffffffffffffffff1660808173ffffffffffffffffffffffffffffffffffffffff1660601b815250508060a08181525050506100de565b60008151905061008e816100c7565b92915050565b6000602082840312156100a657600080fd5b60006100b48482850161007f565b91505092915050565b6000819050919050565b6100d0816100bd565b81146100db57600080fd5b50565b60805160601c60a0516111a6610114600039600081816104fb01526105c60152600081816104d1015261086a01526111a66000f3fe6080604052600436106100705760003560e01c80637fd6f15c1161004e5780637fd6f15c146100f4578063bfb231d21461011f578063ca7dd37514610161578063d38ea5bf1461019e57610070565b806357baf0fb1461007557806365e17c9d1461009e5780636bfb0d01146100c9575b600080fd5b34801561008157600080fd5b5061009c60048036038101906100979190610a95565b6101ba565b005b3480156100aa57600080fd5b506100b36104cf565b6040516100c09190610c2a565b60405180910390f35b3480156100d557600080fd5b506100de6104f3565b6040516100eb9190610d3c565b60405180910390f35b34801561010057600080fd5b506101096104f9565b6040516101169190610d3c565b60405180910390f35b34801561012b57600080fd5b5061014660048036038101906101419190610ae4565b61051d565b60405161015896959493929190610d57565b60405180910390f35b34801561016d57600080fd5b5061018860048036038101906101839190610ae4565b6105a6565b6040516101959190610d3c565b60405180910390f35b6101b860048036038101906101b39190610ae4565b61060e565b005b60026000541415610200576040517f08c379a00000000000000000000000000000000000000000000000000000000081526004016101f790610cdc565b60405180910390fd5b60026000819055506000811161024b576040517f08c379a000000000000000000000000000000000000000000000000000000000815260040161024290610c9c565b60405180910390fd5b6000821161028e576040517f08c379a000000000000000000000000000000000000000000000000000000000815260040161028590610c7c565b60405180910390fd5b600160008154809291906102a190610fa5565b91905055508273ffffffffffffffffffffffffffffffffffffffff166323b872dd3330856040518463ffffffff1660e01b81526004016102e393929190610c45565b600060405180830381600087803b1580156102fd57600080fd5b505af1158015610311573d6000803e3d6000fd5b505050506040518060c0016040528060015481526020018473ffffffffffffffffffffffffffffffffffffffff1681526020018281526020018381526020013373ffffffffffffffffffffffffffffffffffffffff168152602001600015158152506002600060015481526020019081526020016000206000820151816000015560208201518160010160006101000a81548173ffffffffffffffffffffffffffffffffffffffff021916908373ffffffffffffffffffffffffffffffffffffffff160217905550604082015181600201556060820151816003015560808201518160040160006101000a81548173ffffffffffffffffffffffffffffffffffffffff021916908373ffffffffffffffffffffffffffffffffffffffff16021790555060a08201518160040160146101000a81548160ff0219169083151502179055509050503373ffffffffffffffffffffffffffffffffffffffff168373ffffffffffffffffffffffffffffffffffffffff167f4ed9088489ae816421b311608163117da3ff29a45b9396106b7cad6c56dbc1ba60015484866040516104ba93929190610db8565b60405180910390a36001600081905550505050565b7f000000000000000000000000000000000000000000000000000000000000000081565b60015481565b7f000000000000000000000000000000000000000000000000000000000000000081565b60026020528060005260406000206000915090508060000154908060010160009054906101000a900473ffffffffffffffffffffffffffffffffffffffff16908060020154908060030154908060040160009054906101000a900473ffffffffffffffffffffffffffffffffffffffff16908060040160149054906101000a900460ff16905086565b6000806002600084815260200190815260200160002060020154905060647f000000000000000000000000000000000000000000000000000000000000000060646105f19190610e00565b826105fc9190610e87565b6106069190610e56565b915050919050565b60026000541415610654576040517f08c379a000000000000000000000000000000000000000000000000000000000815260040161064b90610cdc565b60405180910390fd5b600260008190555060008111801561066e57506001548111155b6106ad576040517f08c379a00000000000000000000000000000000000000000000000000000000081526004016106a490610c7c565b60405180910390fd5b60006106b8826105a6565b9050600060026000848152602001908152602001600020905081341015610714576040517f08c379a000000000000000000000000000000000000000000000000000000000815260040161070b90610d1c565b60405180910390fd5b8060040160149054906101000a900460ff1615610766576040517f08c379a000000000000000000000000000000000000000000000000000000000815260040161075d90610cfc565b60405180910390fd5b3373ffffffffffffffffffffffffffffffffffffffff168160040160009054906101000a900473ffffffffffffffffffffffffffffffffffffffff1673ffffffffffffffffffffffffffffffffffffffff1614156107f9576040517f08c379a00000000000000000000000000000000000000000000000000000000081526004016107f090610cbc565b60405180910390fd5b8060040160009054906101000a900473ffffffffffffffffffffffffffffffffffffffff1673ffffffffffffffffffffffffffffffffffffffff166108fc82600201549081150290604051600060405180830381858888f19350505050158015610867573d6000803e3d6000fd5b507f000000000000000000000000000000000000000000000000000000000000000073ffffffffffffffffffffffffffffffffffffffff166108fc8260020154846108b29190610ee1565b9081150290604051600060405180830381858888f193505050501580156108dd573d6000803e3d6000fd5b5060018160040160146101000a81548160ff0219169083151502179055508060010160009054906101000a900473ffffffffffffffffffffffffffffffffffffffff1673ffffffffffffffffffffffffffffffffffffffff166323b872dd303384600301546040518463ffffffff1660e01b815260040161096093929190610c45565b600060405180830381600087803b15801561097a57600080fd5b505af115801561098e573d6000803e3d6000fd5b505050503373ffffffffffffffffffffffffffffffffffffffff168160040160009054906101000a900473ffffffffffffffffffffffffffffffffffffffff1673ffffffffffffffffffffffffffffffffffffffff168260010160009054906101000a900473ffffffffffffffffffffffffffffffffffffffff1673ffffffffffffffffffffffffffffffffffffffff167fe00601ec1aad78d37521b2e147b5e75bf3f08251cc75e968447d8daf65587f8686856003015487604051610a5693929190610db8565b60405180910390a45050600160008190555050565b600081359050610a7a81611142565b92915050565b600081359050610a8f81611159565b92915050565b600080600060608486031215610aaa57600080fd5b6000610ab886828701610a6b565b9350506020610ac986828701610a80565b9250506040610ada86828701610a80565b9150509250925092565b600060208284031215610af657600080fd5b6000610b0484828501610a80565b91505092915050565b610b1681610f27565b82525050565b610b2581610f15565b82525050565b610b3481610f39565b82525050565b610b4381610f81565b82525050565b6000610b56601083610def565b9150610b618261104c565b602082019050919050565b6000610b79601583610def565b9150610b8482611075565b602082019050919050565b6000610b9c601783610def565b9150610ba78261109e565b602082019050919050565b6000610bbf601f83610def565b9150610bca826110c7565b602082019050919050565b6000610be2601183610def565b9150610bed826110f0565b602082019050919050565b6000610c05601083610def565b9150610c1082611119565b602082019050919050565b610c2481610f77565b82525050565b6000602082019050610c3f6000830184610b0d565b92915050565b6000606082019050610c5a6000830186610b1c565b610c676020830185610b1c565b610c746040830184610c1b565b949350505050565b60006020820190508181036000830152610c9581610b49565b9050919050565b60006020820190508181036000830152610cb581610b6c565b9050919050565b60006020820190508181036000830152610cd581610b8f565b9050919050565b60006020820190508181036000830152610cf581610bb2565b9050919050565b60006020820190508181036000830152610d1581610bd5565b9050919050565b60006020820190508181036000830152610d3581610bf8565b9050919050565b6000602082019050610d516000830184610c1b565b92915050565b600060c082019050610d6c6000830189610c1b565b610d796020830188610b3a565b610d866040830187610c1b565b610d936060830186610c1b565b610da06080830185610b0d565b610dad60a0830184610b2b565b979650505050505050565b6000606082019050610dcd6000830186610c1b565b610dda6020830185610c1b565b610de76040830184610c1b565b949350505050565b600082825260208201905092915050565b6000610e0b82610f77565b9150610e1683610f77565b9250827fffffffffffffffffffffffffffffffffffffffffffffffffffffffffffffffff03821115610e4b57610e4a610fee565b5b828201905092915050565b6000610e6182610f77565b9150610e6c83610f77565b925082610e7c57610e7b61101d565b5b828204905092915050565b6000610e9282610f77565b9150610e9d83610f77565b9250817fffffffffffffffffffffffffffffffffffffffffffffffffffffffffffffffff0483118215151615610ed657610ed5610fee565b5b828202905092915050565b6000610eec82610f77565b9150610ef783610f77565b925082821015610f0a57610f09610fee565b5b828203905092915050565b6000610f2082610f57565b9050919050565b6000610f3282610f57565b9050919050565b60008115159050919050565b6000610f5082610f15565b9050919050565b600073ffffffffffffffffffffffffffffffffffffffff82169050919050565b6000819050919050565b6000610f8c82610f93565b9050919050565b6000610f9e82610f57565b9050919050565b6000610fb082610f77565b91507fffffffffffffffffffffffffffffffffffffffffffffffffffffffffffffffff821415610fe357610fe2610fee565b5b600182019050919050565b7f4e487b7100000000000000000000000000000000000000000000000000000000600052601160045260246000fd5b7f4e487b7100000000000000000000000000000000000000000000000000000000600052601260045260246000fd5b7f496e76616c696420746f6b656e20696400000000000000000000000000000000600082015250565b7f596f752073656c6c696e6720666f7220667265653f0000000000000000000000600082015250565b7f43616e6e6f742070756368617365206f776e206974656d000000000000000000600082015250565b7f5265656e7472616e637947756172643a207265656e7472616e742063616c6c00600082015250565b7f4974656d20616c726561647920736f6c64000000000000000000000000000000600082015250565b7f6e6f7420656e6f75676820657468657200000000000000000000000000000000600082015250565b61114b81610f45565b811461115657600080fd5b50565b61116281610f77565b811461116d57600080fd5b5056fea2646970667358221220c380459c1060573ab4ff62afb15c7805ac302438a6d72436181efd09be689bdd64736f6c63430008040033",
  "linkReferences": {},
  "deployedLinkReferences": {}
}